{
  "contractName": "RecptPmtStates",
  "abi": [
    {
      "constant": false,
      "inputs": [
        {
          "name": "_index",
          "type": "uint256"
        }
      ],
      "name": "getInvoice",
      "outputs": [
        {
          "name": "no",
          "type": "bytes32"
        },
        {
          "name": "code",
          "type": "bytes32"
        },
        {
          "name": "amount",
          "type": "uint256"
        },
        {
          "name": "payer",
          "type": "string"
        },
        {
          "name": "payee",
          "type": "string"
        },
        {
          "name": "issuedDate",
          "type": "uint256"
        },
        {
          "name": "paymentDate",
          "type": "uint256"
        }
      ],
      "payable": false,
      "stateMutability": "nonpayable",
      "type": "function"
    },
    {
      "constant": false,
      "inputs": [
        {
          "name": "_no",
          "type": "bytes32"
        },
        {
          "name": "_code",
          "type": "bytes32"
        },
        {
          "name": "_amount",
          "type": "uint256"
        },
        {
          "name": "_payer",
          "type": "string"
        },
        {
          "name": "_payee",
          "type": "string"
        },
        {
          "name": "_issuedDate",
          "type": "uint256"
        },
        {
          "name": "_paymentDate",
          "type": "uint256"
        }
      ],
      "name": "addInvoice",
      "outputs": [
        {
          "name": "",
          "type": "uint256"
        }
      ],
      "payable": false,
      "stateMutability": "nonpayable",
      "type": "function"
    },
    {
      "constant": false,
      "inputs": [],
      "name": "getInvoicesLength",
      "outputs": [
        {
          "name": "",
          "type": "uint256"
        }
      ],
      "payable": false,
      "stateMutability": "nonpayable",
      "type": "function"
    }
  ],
  "bytecode": "0x6060604052341561000f57600080fd5b6107878061001e6000396000f300606060405260043610610057576000357c0100000000000000000000000000000000000000000000000000000000900463ffffffff1680633a23cc0a1461005c57806374aa5bdf14610197578063ace6250414610280575b600080fd5b341561006757600080fd5b61007d60048080359060200190919050506102a9565b60405180886000191660001916815260200187600019166000191681526020018681526020018060200180602001858152602001848152602001838103835287818151815260200191508051906020019080838360005b838110156100ef5780820151818401526020810190506100d4565b50505050905090810190601f16801561011c5780820380516001836020036101000a031916815260200191505b50838103825286818151815260200191508051906020019080838360005b8381101561015557808201518184015260208101905061013a565b50505050905090810190601f1680156101825780820380516001836020036101000a031916815260200191505b50995050505050505050505060405180910390f35b34156101a257600080fd5b61026a6004808035600019169060200190919080356000191690602001909190803590602001909190803590602001908201803590602001908080601f0160208091040260200160405190810160405280939291908181526020018383808284378201915050505050509190803590602001908201803590602001908080601f0160208091040260200160405190810160405280939291908181526020018383808284378201915050505050509190803590602001909190803590602001909190505061044e565b6040518082815260200191505060405180910390f35b341561028b57600080fd5b610293610551565b6040518082815260200191505060405180910390f35b60008060006102b661055d565b6102be61055d565b600080600080898154811015156102d157fe5b90600052602060002090600702019050806000015497508060010154965080600201549550806003018054600181600116156101000203166002900480601f01602080910402602001604051908101604052809291908181526020018280546001816001161561010002031660029004801561038e5780601f106103635761010080835404028352916020019161038e565b820191906000526020600020905b81548152906001019060200180831161037157829003601f168201915b50505050509450806004018054600181600116156101000203166002900480601f01602080910402602001604051908101604052809291908181526020018280546001816001161561010002031660029004801561042d5780601f106104025761010080835404028352916020019161042d565b820191906000526020600020905b81548152906001019060200180831161041057829003601f168201915b50505050509350806005015492508060060154915050919395979092949650565b6000610458610571565b600060e0604051908101604052808b6000191681526020018a6000191681526020018981526020018881526020018781526020018681526020018581525091506001600080548060010182816104ae91906105c1565b91600052602060002090600702016000859091909150600082015181600001906000191690556020820151816001019060001916905560408201518160020155606082015181600301908051906020019061050a9291906105f3565b5060808201518160040190805190602001906105279291906105f3565b5060a0820151816005015560c0820151816006015550500390508092505050979650505050505050565b60008080549050905090565b602060405190810160405280600081525090565b60e0604051908101604052806000801916815260200160008019168152602001600081526020016105a0610673565b81526020016105ad610673565b815260200160008152602001600081525090565b8154818355818115116105ee576007028160070283600052602060002091820191016105ed9190610687565b5b505050565b828054600181600116156101000203166002900490600052602060002090601f016020900481019282601f1061063457805160ff1916838001178555610662565b82800160010185558215610662579182015b82811115610661578251825591602001919060010190610646565b5b50905061066f91906106ee565b5090565b602060405190810160405280600081525090565b6106eb91905b808211156106e757600080820160009055600182016000905560028201600090556003820160006106be9190610713565b6004820160006106ce9190610713565b600582016000905560068201600090555060070161068d565b5090565b90565b61071091905b8082111561070c5760008160009055506001016106f4565b5090565b90565b50805460018160011615610100020316600290046000825580601f106107395750610758565b601f01602090049060005260206000209081019061075791906106ee565b5b505600a165627a7a72305820b4fc7c7dfae6cadcbe7d47735a6fb5abc7373acf41563b2ffd7812e39d0035400029",
  "source": "pragma solidity 0.4.18;\n\n//星河金服 收付邦平台 智能合约\ncontract RecptPmtStates {\n\n  struct Invoice {\n    bytes32 no; //发票号码\n    bytes32 code; //发票代码\n    uint amount; //发票金额\n    string payer; //买方\n    string payee; //卖方\n    uint issuedDate; //开票日期\n    uint paymentDate; //付款日期\n  }\n\n  Invoice[] invoices;\n\n  //添加发票\n  function addInvoice(\n    bytes32 _no,\n    bytes32 _code,\n    uint _amount,\n    string _payer,\n    string _payee,\n    uint _issuedDate,\n    uint _paymentDate\n  )\n    public\n    returns (uint)\n  {\n    Invoice memory invoice = Invoice({\n      no: _no,\n      code: _code,\n      amount: _amount,\n      payer: _payer,\n      payee: _payee,\n      issuedDate: _issuedDate,\n      paymentDate: _paymentDate\n    });\n\n    uint index = invoices.push(invoice) - 1;\n    return index;\n  }\n\n  //获取发票数组长度\n  function getInvoicesLength() public returns (uint) {\n    return invoices.length;\n  }\n\n  //通过下标获取发票信息\n  function getInvoice(\n      uint _index\n    )\n    public\n    returns (\n      bytes32 no,\n      bytes32 code,\n      uint amount,\n      string payer,\n      string payee,\n      uint issuedDate,\n      uint paymentDate\n    )\n  {\n    Invoice storage invoice = invoices[_index];\n\n    no = invoice.no;\n    code = invoice.code;\n    amount = invoice.amount;\n    payer = invoice.payer;\n    payee = invoice.payee;\n    issuedDate = invoice.issuedDate;\n    paymentDate = invoice.paymentDate;\n  }\n\n}\n",
  "sourcePath": "/Users/liangdawei/Documents/git.itari.com.cn/galaxy-dapp/contracts/RecptPmtStates.sol",
  "compiler": {
    "name": "solc",
    "version": "0.4.18+commit.9cf6e910.Emscripten.clang"
  },
  "schemaVersion": "1.0.1",
  "updatedAt": "2017-12-20T08:14:03.286Z"
}